{
  "_format": "hh-sol-artifact-1",
  "contractName": "B2BProductReservation",
  "sourceName": "contracts/ProductReservation.sol",
  "abi": [
    {
      "inputs": [],
      "stateMutability": "nonpayable",
      "type": "constructor"
    },
    {
      "anonymous": false,
      "inputs": [
        {
          "indexed": false,
          "internalType": "uint256",
          "name": "id",
          "type": "uint256"
        },
        {
          "indexed": false,
          "internalType": "string",
          "name": "name",
          "type": "string"
        },
        {
          "indexed": false,
          "internalType": "uint256",
          "name": "price",
          "type": "uint256"
        },
        {
          "indexed": false,
          "internalType": "uint256",
          "name": "stock",
          "type": "uint256"
        }
      ],
      "name": "ProductAdded",
      "type": "event"
    },
    {
      "anonymous": false,
      "inputs": [
        {
          "indexed": false,
          "internalType": "uint256",
          "name": "id",
          "type": "uint256"
        },
        {
          "indexed": false,
          "internalType": "uint256",
          "name": "quantity",
          "type": "uint256"
        },
        {
          "indexed": true,
          "internalType": "address",
          "name": "reseller",
          "type": "address"
        }
      ],
      "name": "ProductOrdered",
      "type": "event"
    },
    {
      "inputs": [
        {
          "internalType": "string",
          "name": "_name",
          "type": "string"
        },
        {
          "internalType": "uint256",
          "name": "_price",
          "type": "uint256"
        },
        {
          "internalType": "uint256",
          "name": "_stock",
          "type": "uint256"
        }
      ],
      "name": "addProduct",
      "outputs": [],
      "stateMutability": "nonpayable",
      "type": "function"
    },
    {
      "inputs": [
        {
          "internalType": "uint256",
          "name": "_id",
          "type": "uint256"
        },
        {
          "internalType": "uint256",
          "name": "_quantity",
          "type": "uint256"
        }
      ],
      "name": "orderProduct",
      "outputs": [],
      "stateMutability": "payable",
      "type": "function"
    },
    {
      "inputs": [],
      "name": "owner",
      "outputs": [
        {
          "internalType": "address",
          "name": "",
          "type": "address"
        }
      ],
      "stateMutability": "view",
      "type": "function"
    },
    {
      "inputs": [],
      "name": "productCount",
      "outputs": [
        {
          "internalType": "uint256",
          "name": "",
          "type": "uint256"
        }
      ],
      "stateMutability": "view",
      "type": "function"
    },
    {
      "inputs": [
        {
          "internalType": "uint256",
          "name": "",
          "type": "uint256"
        }
      ],
      "name": "products",
      "outputs": [
        {
          "internalType": "uint256",
          "name": "id",
          "type": "uint256"
        },
        {
          "internalType": "string",
          "name": "name",
          "type": "string"
        },
        {
          "internalType": "uint256",
          "name": "price",
          "type": "uint256"
        },
        {
          "internalType": "uint256",
          "name": "stock",
          "type": "uint256"
        }
      ],
      "stateMutability": "view",
      "type": "function"
    }
  ],
  "bytecode": "0x608060405234801561001057600080fd5b50336000806101000a81548173ffffffffffffffffffffffffffffffffffffffff021916908373ffffffffffffffffffffffffffffffffffffffff160217905550611012806100606000396000f3fe60806040526004361061004a5760003560e01c8063125b0b341461004f5780637acc0b20146100785780638da5cb5b146100b8578063b7df2fde146100e3578063e0f6ef87146100ff575b600080fd5b34801561005b57600080fd5b5061007660048036038101906100719190610733565b61012a565b005b34801561008457600080fd5b5061009f600480360381019061009a91906107a2565b610283565b6040516100af949392919061085d565b60405180910390f35b3480156100c457600080fd5b506100cd61033b565b6040516100da91906108ea565b60405180910390f35b6100fd60048036038101906100f89190610905565b61035f565b005b34801561010b57600080fd5b5061011461059d565b6040516101219190610945565b60405180910390f35b60008054906101000a900473ffffffffffffffffffffffffffffffffffffffff1673ffffffffffffffffffffffffffffffffffffffff163373ffffffffffffffffffffffffffffffffffffffff16146101b8576040517f08c379a00000000000000000000000000000000000000000000000000000000081526004016101af906109d2565b60405180910390fd5b600160008154809291906101cb90610a21565b919050555060405180608001604052806001548152602001848152602001838152602001828152506002600060015481526020019081526020016000206000820151816000015560208201518160010190816102279190610c75565b5060408201518160020155606082015181600301559050507f0107e99fb43ba873db8a5ce7c34a12cd44cd3041167cff32040ddb6aca455ae6600154848484604051610276949392919061085d565b60405180910390a1505050565b60026020528060005260406000206000915090508060000154908060010180546102ac90610a98565b80601f01602080910402602001604051908101604052809291908181526020018280546102d890610a98565b80156103255780601f106102fa57610100808354040283529160200191610325565b820191906000526020600020905b81548152906001019060200180831161030857829003601f168201915b5050505050908060020154908060030154905084565b60008054906101000a900473ffffffffffffffffffffffffffffffffffffffff1681565b60008211801561037157506001548211155b6103b0576040517f08c379a00000000000000000000000000000000000000000000000000000000081526004016103a790610d93565b60405180910390fd5b6000600260008481526020019081526020016000209050818160030154101561040e576040517f08c379a000000000000000000000000000000000000000000000000000000000815260040161040590610dff565b60405180910390fd5b81816002015461041e9190610e1f565b341461045f576040517f08c379a000000000000000000000000000000000000000000000000000000000815260040161045690610ead565b60405180910390fd5b818160030160008282546104739190610ecd565b9250508190555060008060009054906101000a900473ffffffffffffffffffffffffffffffffffffffff1673ffffffffffffffffffffffffffffffffffffffff16346040516104c190610f32565b60006040518083038185875af1925050503d80600081146104fe576040519150601f19603f3d011682016040523d82523d6000602084013e610503565b606091505b5050905080610547576040517f08c379a000000000000000000000000000000000000000000000000000000000815260040161053e90610f93565b60405180910390fd5b3373ffffffffffffffffffffffffffffffffffffffff167f3b2213096f9da9115840bbb79098c35c37039c3bb8234ef5ad41838973e0fab9858560405161058f929190610fb3565b60405180910390a250505050565b60015481565b6000604051905090565b600080fd5b600080fd5b600080fd5b600080fd5b6000601f19601f8301169050919050565b7f4e487b7100000000000000000000000000000000000000000000000000000000600052604160045260246000fd5b61060a826105c1565b810181811067ffffffffffffffff82111715610629576106286105d2565b5b80604052505050565b600061063c6105a3565b90506106488282610601565b919050565b600067ffffffffffffffff821115610668576106676105d2565b5b610671826105c1565b9050602081019050919050565b82818337600083830152505050565b60006106a061069b8461064d565b610632565b9050828152602081018484840111156106bc576106bb6105bc565b5b6106c784828561067e565b509392505050565b600082601f8301126106e4576106e36105b7565b5b81356106f484826020860161068d565b91505092915050565b6000819050919050565b610710816106fd565b811461071b57600080fd5b50565b60008135905061072d81610707565b92915050565b60008060006060848603121561074c5761074b6105ad565b5b600084013567ffffffffffffffff81111561076a576107696105b2565b5b610776868287016106cf565b93505060206107878682870161071e565b92505060406107988682870161071e565b9150509250925092565b6000602082840312156107b8576107b76105ad565b5b60006107c68482850161071e565b91505092915050565b6107d8816106fd565b82525050565b600081519050919050565b600082825260208201905092915050565b60005b838110156108185780820151818401526020810190506107fd565b60008484015250505050565b600061082f826107de565b61083981856107e9565b93506108498185602086016107fa565b610852816105c1565b840191505092915050565b600060808201905061087260008301876107cf565b81810360208301526108848186610824565b905061089360408301856107cf565b6108a060608301846107cf565b95945050505050565b600073ffffffffffffffffffffffffffffffffffffffff82169050919050565b60006108d4826108a9565b9050919050565b6108e4816108c9565b82525050565b60006020820190506108ff60008301846108db565b92915050565b6000806040838503121561091c5761091b6105ad565b5b600061092a8582860161071e565b925050602061093b8582860161071e565b9150509250929050565b600060208201905061095a60008301846107cf565b92915050565b7f4f6e6c7920746865206f776e65722063616e2063616c6c20746869732066756e60008201527f6374696f6e2e0000000000000000000000000000000000000000000000000000602082015250565b60006109bc6026836107e9565b91506109c782610960565b604082019050919050565b600060208201905081810360008301526109eb816109af565b9050919050565b7f4e487b7100000000000000000000000000000000000000000000000000000000600052601160045260246000fd5b6000610a2c826106fd565b91507fffffffffffffffffffffffffffffffffffffffffffffffffffffffffffffffff8203610a5e57610a5d6109f2565b5b600182019050919050565b7f4e487b7100000000000000000000000000000000000000000000000000000000600052602260045260246000fd5b60006002820490506001821680610ab057607f821691505b602082108103610ac357610ac2610a69565b5b50919050565b60008190508160005260206000209050919050565b60006020601f8301049050919050565b600082821b905092915050565b600060088302610b2b7fffffffffffffffffffffffffffffffffffffffffffffffffffffffffffffffff82610aee565b610b358683610aee565b95508019841693508086168417925050509392505050565b6000819050919050565b6000610b72610b6d610b68846106fd565b610b4d565b6106fd565b9050919050565b6000819050919050565b610b8c83610b57565b610ba0610b9882610b79565b848454610afb565b825550505050565b600090565b610bb5610ba8565b610bc0818484610b83565b505050565b5b81811015610be457610bd9600082610bad565b600181019050610bc6565b5050565b601f821115610c2957610bfa81610ac9565b610c0384610ade565b81016020851015610c12578190505b610c26610c1e85610ade565b830182610bc5565b50505b505050565b600082821c905092915050565b6000610c4c60001984600802610c2e565b1980831691505092915050565b6000610c658383610c3b565b9150826002028217905092915050565b610c7e826107de565b67ffffffffffffffff811115610c9757610c966105d2565b5b610ca18254610a98565b610cac828285610be8565b600060209050601f831160018114610cdf5760008415610ccd578287015190505b610cd78582610c59565b865550610d3f565b601f198416610ced86610ac9565b60005b82811015610d1557848901518255600182019150602085019450602081019050610cf0565b86831015610d325784890151610d2e601f891682610c3b565b8355505b6001600288020188555050505b505050505050565b7f50726f6475637420646f6573206e6f742065786973742e000000000000000000600082015250565b6000610d7d6017836107e9565b9150610d8882610d47565b602082019050919050565b60006020820190508181036000830152610dac81610d70565b9050919050565b7f4e6f7420656e6f7567682073746f636b20617661696c61626c652e0000000000600082015250565b6000610de9601b836107e9565b9150610df482610db3565b602082019050919050565b60006020820190508181036000830152610e1881610ddc565b9050919050565b6000610e2a826106fd565b9150610e35836106fd565b9250828202610e43816106fd565b91508282048414831517610e5a57610e596109f2565b5b5092915050565b7f496e636f7272656374207061796d656e7420616d6f756e742e00000000000000600082015250565b6000610e976019836107e9565b9150610ea282610e61565b602082019050919050565b60006020820190508181036000830152610ec681610e8a565b9050919050565b6000610ed8826106fd565b9150610ee3836106fd565b9250828203905081811115610efb57610efa6109f2565b5b92915050565b600081905092915050565b50565b6000610f1c600083610f01565b9150610f2782610f0c565b600082019050919050565b6000610f3d82610f0f565b9150819050919050565b7f5061796d656e74207472616e73666572206661696c65642e0000000000000000600082015250565b6000610f7d6018836107e9565b9150610f8882610f47565b602082019050919050565b60006020820190508181036000830152610fac81610f70565b9050919050565b6000604082019050610fc860008301856107cf565b610fd560208301846107cf565b939250505056fea2646970667358221220c994f9f29d8e4bb21b482716968d7e321d1e20fd3cb3d329d453bb4b77e1f6bc64736f6c63430008140033",
  "linkReferences": {},
  "deployedLinkReferences": {}
}